S00F00006C6F636B4172642E7372656355
S113000071C000008FC000008CC000008AC00000D6
S113001088C0000086C0000084C0000082C00000C8
S113002080C000007EC000007CC000007AC00000D8
S113003078C0000076C0000074C0000072C00000E8
S113004070C000006EC000006CC000006AC00000F8
S113005068C0000066C0000064C0000062C0000008
S113006060C000005EC000005CC000005AC0000018
S113007058C0000056C0000054C0000052C0000028
S113008050C000004EC000004CC000004AC0000038
S113009048C0000046C0000044C0000042C0000048
S11300A040C000003EC000003CC000003AC0000058
S11300B038C0000036C0000034C0000032C0000068
S11300C030C000002EC000002CC000002AC0000078
S11300D028C0000026C0000024C0000022C0000088
S11300E020C0000011241FBECFEFD1E2DEBFCDBF80
S11300F000E00CBF12E0A0E0B2E0E8EBF6E000E0C4
S11301000BBF02C007900D92A430B107D9F722E0CB
S1130110A4E0B2E001C01D92A231B207E1F7B2D06F
S1130120C9C26ECF1F920F920FB60F9211240F9374
S11301301F932F933F934F935F936F937F938F936B
S11301409F93AF93BF930AE60A95F1F700C086B177
S1130150982F9170809111028E3029F0892B880F8D
S11301608093110253C020910202309103022F3177
S113017031051CF540910D0250910E0260910F0261
S1130180709110028A019B01092BD901C801880FC3
S1130190991FAA1FBB1F80930D0290930E02A09378
S11301A00F02B09310028091020290910302019613
S11301B0909303028093020229C0809102029091DD
S11301C003024F9719F580910D0290910E02A091B0
S11301D00F02B0911002880F991FAA1FBB1F880F2E
S11301E0991FAA1FBB1F80930D0290930E02A09328
S11301F00F02B093100210921102809102029091AA
S1130200030201969093030280930202BF91AF917F
S11302109F918F917F916F915F914F913F912F911A
S11302201F910F910F900FBE0F901F90189592B1D0
S11302308F70982B92B982B185B92FEF81EE94E03B
S1130240215080409040E1F700C00000179A82B12D
S113025085B92FEF81EE94E0215080409040E1F782
S113026000C00000179882B185B92FEF81EE94E0A9
S1130270215080409040E1F700C0000012B882B1E4
S113028085B908958FEF81B912B884B915B83ED0F5
S113029037D08091020290910302809789F40F2E47
S11302A0F2E0EF2EF2E0FF2EF02D0DE012E027E059
S11302B032E045E052E069E072E08BE092E0BED1CA
S11302C020910B0230910C02809100029091010266
S11302D028173907F1F68091090290910A0287FBE9
S11302E0222720F920930402213009F4A0DF109280
S11302F00C0210920B0210920A0210920902C9CF4A
S113030081E0809369008DBB789408958FEF81B963
S113031012B884B915B817B818B80895AF92BF9237
S1130320CF92DF92EF92FF920F931F93CF93DF93BD
S11303305B01EB0119821882FC01C080D180D69444
S1130340C794D694C794D694C794D694C794D982A4
S1130350C882D601A57DB670F601E37BF570A601CF
S11303604F78537096012F773327EC018881998158
S113037083FB112710F9C12F60E0D62F82FB0027E1
S113038000F910E081FBEE24E0F8F12C817099274C
S1130390109741F0A0FF02C061E0C627B695A7956B
S11303A01097C1F7309741F0E0FF02C061E00627E3
S11303B0F695E7953097C1F74115510549F040FF8F
S11303C002C0E1E0EE265695479541155105B9F76F
S11303D02115310549F020FF02C0F1E08F27369541
S11303E0279521153105B9F7209709F499C001150E
S11303F0110509F47CC0E114F10409F071C051E065
S113040040E0009709F050E0252F342F6BC000978F
S113041009F48DC020E030E013C0E114F10409F4C4
S113042089C0009709F489C020E030E012C0E114CB
S1130430F10409F463C0009709F060C028605EC04D
S1130440E114F10409F05EC0009709F45BC0206177
S113045059C00115110509F473C0E114F10409F040
S113046055C0009709F452C0206250C0011511050F
S113047009F46AC0E114F10409F04CC0009709F4CE
S113048049C0206447C00115110509F065C0E11495
S1130490F10409F45DC0009709F45AC0206858C0FB
S11304A00115110509F05CC0E114F104B1F10097E4
S11304B0A1F1316032C0012B69F0EF2859F0892B8A
S11304C049F0326007C0012B29F0EF2819F0892B7D
S11304D009F03460C226D326E501D982C88244C01B
S11304E020E030E00115110509F0A1CFA9CFE114F6
S11304F0F10409F08CCF20E030E0A2CF209709F07E
S1130500B5CFA7CF209709F0B1CFBDCF209709F47D
S1130510BACFC6CF209721F6CECFCD2BA1F6DACF16
S11305200115110509F079CF20E030E092CF22E0E7
S113053030E086CF20E030E08CCF24E030E089CF7B
S1130540209709F4A4CFACCF209709F0ADCFB3CF57
S1130550CD2B09F4BFCFB7CFCD2B09F4AECFB3CF9A
S1130560CD2B09F0B2CFB6CFDF91CF911F910F9170
S1130570FF90EF90DF90CF90BF90AF9008958F924F
S11305809F92AF92BF92CF92DF92EF92FF92CF935E
S1130590DF93DC01EB0120E030E0EEE0F0E0812CC1
S11305A0912C54016894B7F881E090E04881598116
S11305B06A817B8175016401022E04C0F694E7947C
S11305C0D794C7940A94D2F74C215D216E217F21E0
S11305D0452B462B472B81F06D917C911197AC01F3
S11305E00E2E02C0440F551F0A94E2F7462B572BD8
S11305F011965C934E9311C0AC010E2E02C0440FB1
S1130600551F0A94E2F7409550956D917C9111978E
S11306104623572311965C934E9331972E5F3F4F99
S11306202E31310519F6DF91CF91FF90EF90DF90D5
S1130630CF90BF90AF909F908F9008958F929F928C
S1130640AF92BF92CF92DF92EF92FF920F931F93DC
S1130650CF93DF935C014B01EA016901B801C90141
S11306608EDFBE01C6015ADE888199819927F40183
S1130670918380838981F50180831182F60111823F
S1130680108219821882F801108211821282138258
S113069081E090E0F70191838083DF91CF911F91F6
S11306A00F91FF90EF90DF90CF90BF90AF909F900D
S10B06B08F900895F894FFCF28
S10706B80500010034
S9030000FC
