:1000000071C00000A1C000008CC000008AC00000C8
:1000100088C0000086C0000084C0000082C00000CC
:1000200080C000007EC000007CC000007AC00000DC
:1000300078C0000076C0000074C0000072C00000EC
:1000400070C000006EC000006CC000006AC00000FC
:1000500068C0000066C0000064C0000062C000000C
:1000600060C000005EC000005CC000005AC000001C
:1000700058C0000056C0000054C0000052C000002C
:1000800050C000004EC000004CC000004AC000003C
:1000900048C0000046C0000044C0000042C000004C
:1000A00040C000003EC000003CC000003AC000005C
:1000B00038C0000036C0000034C0000032C000006C
:1000C00030C000002EC000002CC000002AC000007C
:1000D00028C0000026C0000024C0000022C000008C
:1000E00020C0000011241FBECFEFD1E2DEBFCDBF84
:1000F00000E00CBF12E0A0E0B2E0EAE9F2E000E0CC
:100100000BBF02C007900D92A230B107D9F722E0D1
:10011000A2E0B2E001C01D92AB30B207E1F7A8D077
:10012000BAC06ECF21E030E0FC0131832083089516
:1001300081E0809369008DBB7894089511B812B85E
:100140008FEF84B985B908951F920F920FB60F9261
:1001500011242F933F934F935F936F937F938F93CC
:100160009F93AF93BF9380910002909101020597F6
:1001700094F482B1409100025091010224E030E0F9
:10018000241B350B01C0880F2A95EAF790910A02CB
:10019000892B80930A0280910002909101020597B9
:1001A000DCF180910A028E30B9F582B190E0A0E0D6
:1001B000B0E08093020290930302A0930402B093F4
:1001C0000502209100023091010223323105C4F56D
:1001D00040910002509101022AE130E0241B350BCE
:1001E00004C0880F991FAA1FBB1F2A95D2F7409100
:1001F0000602509107026091080270910902842B57
:10020000952BA62BB72B8093060290930702A09301
:100210000802B093090214C080910002909101027B
:10022000059774F080910A028E3051F010920A0204
:100230001092060210920702109208021092090210
:1002400080910002909101020196909301028093A7
:100250000002BF91AF919F918F917F916F915F91BC
:100260004F913F912F910F900FBE0F901F901895B7
:1002700065DF5EDF82B1882319F080E092E052DF13
:100280002AEA36EE86E991E02150304080409040E5
:0A029000D9F70000EFCFF894FFCF7C
:02029A006400FE
:00000001FF
