:1000000071C00000DEC000008CC000008AC000008B
:1000100088C0000086C0000084C0000082C00000CC
:1000200080C000007EC000007CC000007AC00000DC
:1000300078C0000076C0000074C0000072C00000EC
:1000400070C000006EC000006CC000006AC00000FC
:1000500068C0000066C0000064C0000062C000000C
:1000600060C000005EC000005CC000005AC000001C
:1000700058C0000056C0000054C0000052C000002C
:1000800050C000004EC000004CC000004AC000003C
:1000900048C0000046C0000044C0000042C000004C
:1000A00040C000003EC000003CC000003AC000005C
:1000B00038C0000036C0000034C0000032C000006C
:1000C00030C000002EC000002CC000002AC000007C
:1000D00028C0000026C0000024C0000022C000008C
:1000E00020C0000011241FBECFEFD1E2DEBFCDBF84
:1000F00000E00CBF12E0A0E0B2E0E8E8F5E000E0CC
:100100000BBF02C007900D92A630B107D9F722E0CD
:10011000A6E0B2E001C01D92A831B207E1F702D01B
:1001200031C26ECF43D13CD134D180931702813696
:1001300019F08236F9F03BC087E090E0909314020A
:100140008093130280EF90E0909316028093150243
:100150000F2EF3E0EF2EF2E0FF2EF02D06E012E07E
:100160002FE032E041E152E065E172E083E192E0AC
:10017000EAD11DC085E090E09093140280931302B1
:100180008FE090E090931602809315020F2EF3E01B
:10019000EF2EF2E0FF2EF02D06E012E02FE032E02D
:1001A00041E152E065E172E083E192E0CCD12FEFD2
:1001B0008BE792E9215080409040E1F700C00000B9
:1001C000B3CF1F920F920FB60F9211242F933F932C
:1001D0004F935F936F937F938F939F93AF93BF934F
:1001E00080910302909104020597CCF420910302C0
:1001F000309104022150310988E090E0AC0102C046
:10020000559547952A95E2F78091000290E0842366
:100210009523892B19F081E082B901C012B8809131
:1002200003029091040205975CF180910302909182
:10023000040283972CF5209103023091040225508B
:10024000310980E090E0A0E0B0E804C0B695A79541
:10025000979587952A95D2F740910602509107020B
:10026000609108027091090284239523A623B72385
:10027000892B8A2B8B2B19F081E082B901C012B82F
:10028000809103029091040283970CF012B8809140
:10029000030290910402019690930402809303025A
:1002A0005FEF89EF90E0515080409040E1F700C04F
:1002B000000086B1982F9170492F50E060E070E007
:1002C00080910E028E3029F0892B880F80930E02C8
:1002D00051C080910102909102024F9714F58091D4
:1002E0000A0290910B02A0910C02B0910D02482BD2
:1002F000592B6A2B7B2B440F551F661F771F40938A
:100300000A0250930B0260930C0270930D028091CD
:1003100001029091020201969093020280930102E1
:1003200029C080910102909102024F9719F58091A6
:100330000A0290910B02A0910C02B0910D02880F5D
:10034000991FAA1FBB1F880F991FAA1FBB1F80934D
:100350000A0290930B02A0930C02B0930D0210922C
:100360000E02809101029091020201969093020286
:1003700080930102BF91AF919F918F917F916F9177
:100380005F914F913F912F910F900FBE0F901F9053
:1003900018958091C0008823E4F78091C6000895E5
:1003A00081E0809369008DBB7894089517B818B8E0
:1003B0008FEF84B915B881B9089520E030E0FC01D1
:1003C0003081FB0180819181822B932BFA019183F3
:1003D00080830895DC01ED91FC91CF01857D9670BD
:1003E00040E006C080FF02C021E042279695879535
:1003F0000097C1F7CF01837B957030E006C080FF86
:1004000002C021E03227969587950097C1F7CF016A
:100410008F78937020E006C080FF02C051E025274E
:10042000969587950097C1F7CF018F77992750E070
:1004300006C080FF02C0A1E05A27969587950097D5
:10044000C1F7E295F295F07FFE27E07FFE27842F2B
:1004500090E0880F991F880F991F880F991FE82B2C
:10046000F92B832F90E0880F991F880F991FE82B95
:10047000F92B822F90E0880F991F8E2B9F2B852BB5
:10048000FB01918380830895CF92DF92EF92FF92D8
:10049000CF93DF93EC01DB0120E030E049C0E8813D
:1004A000F98140E050E4022E02C0559547950A9428
:1004B000E2F74E235F23452BE9F0CD90DD90ED90E0
:1004C000FC901397C901880F991F40E050E060E04D
:1004D00070E804C076956795579547958A95D2F749
:1004E0004C295D296E297F294D935D936D937C93F3
:1004F00013971CC0CD90DD90ED90FC901397C9012F
:10050000880F991F40E050E060E070E404C07595EA
:100510006795579547958A95D2F74C295D296E299D
:100520007F294D935D936D937C9313972F5F3F4F7E
:100530002F3031050CF4B3CFDF91CF91FF90EF90C6
:10054000DF90CF900895CF92DF92EF92FF920F93BA
:100550001F93CF93DF936A01E9012FDFBE01C6012C
:1005600039DFB801CE0190DF81E090E0F70191839F
:100570008083DF91CF911F910F91FF90EF90DF90DB
:08058000CF900895F894FFCF1D
:060588000E0100640000FA
:040000050080020075
:00000001FF
