S00F00004932435F616C742E73726563B7
S113000071C0000081C000007FC000007DC00000FE
S11300107BC0000079C0000077C0000075C00000FC
S113002073C0000071C000006FC000006DC000000C
S11300306BC0000069C0000067C0000065C000001C
S113004063C0000061C000005FC000005DC000002C
S11300505BC0000059C0000057C0000055C000003C
S113006053C0000051C000004FC000004DC000004C
S11300704BC0000049C0000047C0000045C000005C
S113008043C0000041C000003FC000003DC000006C
S11300903BC0000039C0000037C0000035C000007C
S11300A033C0000031C000002FC000002DC000008C
S11300B02BC0000029C0000027C0000025C000009C
S11300C023C0000021C000001FC000001DC00000AC
S11300D01BC0000019C0000017C0000015C00000BC
S11300E013C0000011241FBECFEFD1E2DEBFCDBF8D
S11300F000E00CBF22E0A0E0B2E001C01D92AF36E8
S1130100B207E1F7E5D1EDC37BCF0F93CF93413233
S113011008F04EC0C0912D02C111FCCF92E0909323
S11301202D0200932B029FEF909306021092090276
S11301304093080290E00AC0E92FF0E0DB01AE0F23
S1130140BF1F3C91E65FFD4F30839F5F9417A0F380
S113015010922C02482F50E0440F551F80912C021E
S1130160482B40932C0280912A02813051F4109242
S11301702A0280912C028093BB0085EC8093BC0002
S113018003C085EE8093BC00222321F080912D02D0
S11301908230D1F3809106028F3F79F0809106027C
S11301A0803241F080910602803331F4C3E005C00F
S11301B0C1E003C0C2E001C0C4E08C2FCF910F9115
S11301C00895413208F047C090912D029111FCCF5F
S11301D091E090932D0220932B022FEF209306029F
S11301E010920902240F2093080290932C0290E0AD
S11301F0880F991F90912C02892B80932C02809157
S11302002A02813051F480932A0280912C02809337
S1130210BB0085EC8093BC0003C085EE8093BC00DA
S113022080912D028130E1F380910902841710F44A
S11302304091090290E00BC0292F30E0FB01E20F4E
S1130240F31FD901A65FBD4F2C9120839F5F9417A4
S113025098F3842F089580E00895613268F48091C2
S11302602D02843059F46093070280E001C08F5F4F
S11302708617E8F380E0089581E0089582E0089508
S11302808091040290E020910502821B9109089557
S11302909091050280910402981750F4E92FF0E040
S11302A0E15DFD4F208130E09F5F9093050202C025
S11302B02FEF3FEFC901089591E0909300028093DE
S11302C00302109202021092010208950F934091CA
S11302D00102082F21E06FE472E08091030215DF30
S11302E01092020210920102109200020F910895DE
S11302F081E0ECCF0895CF93DF931F92CDB7DEB7A3
S11303008983809100028823A1F0809101028032C8
S1130310B8F480910202E82FF0E0E15BFD4F99818F
S113032090838F5F809302028093010281E090E0CA
S113033009C061E0CE01019690DF81E090E002C047
S113034080E090E00F90DF91CF9108958F929F927B
S1130350AF92BF92EF920F931F93CF93DF93182F17
S1130360D62F49015A01002301F1A6DF0430B8F069
S113037003E015C08C2F90E0880F991F880F991FF8
S1130380880F991FA501940104C056954795379588
S113039027958A95D2F7DA01C901ADDF0C2FCFEF8B
S11303A0C00F0111E7CF80E091DFD13208F0D0E235
S11303B02E2D4D2F6FE272E0812F03DF1092050284
S11303C080930402DF91CF911F910F91EF90BF9022
S11303D0AF909F908F900895EF920F93E42E00E0DA
S11303E020E030E0A901B2DF0F91EF90089541E0E1
S11303F0F3CF0895CF93DF93C82F80912E025CDF53
S11304008C2F79DF75DF62E080912E02F0DF38DF18
S1130410892B71F03DDF9927C13079F0D82FCC2793
S11304202FDF892B41F034DF9E01282BC90105C041
S11304308FEF9FEF02C08FEF9FEFDF91CF91089571
S113044080E0D8DF682F70E080E090E0E0D020E02A
S113045030E040E85BE3BEC19B01AC0141D020E049
S113046030E040E05FE33CD00DD120E030E040E0FC
S11304705FE3B0C108958F929F92AF92BF92CF92E3
S1130480DF92EF92FF924B015C018ED06B017C01F5
S1130490072E000C880B990BBAD09B01AC01C50147
S11304A0B4011DD020E030E0A90190D1181614F059
S11304B080E001C081E0DD24CC0CDD1C8C29FF90A0
S11304C0EF90DF90CF90BF90AF909F908F90089562
S11304D08FEF81B9B5DFC0DFCEDF82B9FBCF5058D3
S11304E0BB27AA270ED021C112D130F017D120F09A
S11304F031F49F3F11F41EF407C10EF4E095E7FBBD
S1130500D4C0E92F23D180F3BA1762077307840795
S1130510950718F071F49EF552C10EF4E0950B2E78
S1130520BA2FA02D0B01B90190010C01CA01A00141
S11305301124FF27591B99F0593F50F4503E68F19C
S11305401A16F040A22F232F342F4427585FF3CFDD
S1130550469537952795A795F0405395C9F77EF4AE
S11305601F16BA0B620B730B840BBAF09150A1F0F7
S1130570FF0FBB1F661F771F881FC2F70EC0BA0F7D
S1130580621F731F841F48F4879577956795B79505
S1130590F7959E3F08F0B3CF9395880F08F09927FD
S11305A0EE0F97958795089504D06894B11108C10A
S11305B00895D4D088F09F5790F0B92F9927B75158
S11305C0A0F0D1F0660F771F881F991F1AF0BA9513
S11305D0C9F712C0B13081F0F2D0B1E00895EFC094
S11305E0672F782F8827B85F39F0B93FCCF3869509
S11305F077956795B395D9F73EF490958095709566
S113060061957F4F8F4F9F4F0895E89409C097FBE2
S11306103EF490958095709561957F4F8F4F9F4FD5
S11306209923A9F0F92F96E9BB279395F695879519
S113063077956795B795F111F8CFFAF4BB0F11F4DC
S113064060FF1BC06F5F7F4F8F4F9F4F16C0882383
S113065011F096E911C0772321F09EE8872F762FB9
S113066005C0662371F096E8862F70E060E02AF0FA
S11306709A95660F771F881FDAF7880F96958795E6
S113068097F9089585D080F09F3740F491110EF0CA
S113069097C060E070E080E89FEB089526F41B1695
S11306A0611D711D811D07C021C097F99F6780E8F6
S11306B070E060E00895882371F4772321F0985066
S11306C0872B762F07C0662311F499270DC090510C
S11306D0862B70E060E02AF09A95660F771F881FDA
S11306E0DAF7880F9695879597F908959F3F31F02B
S11306F0915020F4879577956795B795880F911D4C
S11307009695879597F908959FEF80EC08950024B6
S11307100A941616170618060906089500240A9462
S113072012161306140605060895092E0394000CE8
S113073011F4882352F0BB0F40F4BF2B11F460FF77
S113074004C06F5F7F4F8F4F9F4F089557FD9058A0
S1130750440F551F59F05F3F71F04795880F97FB81
S1130760991F61F09F3F79F087950895121613063B
S11307701406551FF2CF4695F1DF08C0161617066A
S11307801806991FF1CF869571056105089408959F
S1130790E5DFA0F0BEE7B91788F4BB279F3860F403
S11307A01616B11D672F782F8827985FF7CF869587
S11307B077956795B11D93959639C8F30895E89494
S11307C0BB2766277727CB0197F9089566D008F4ED
S11307D08FEF08950BD0A9CF9ADF28F09FDF18F090
S11307E0952309F062CF90CF1124EACFAFDFA0F3B5
S11307F0959FD1F3950F50E0551F629FF001729FB2
S1130800BB27F00DB11D639FAA27F00DB11DAA1FD0
S1130810649F6627B00DA11D661F829F2227B00D1D
S1130820A11D621F739FB00DA11D621F839FA00DA8
S1130830611D221F749F3327A00D611D231F849FF8
S1130840600D211D822F762F6A2F11249F5750404F
S11308508AF0E1F088234AF0EE0FFF1FBB1F661FEA
S1130860771F881F91505040A9F79E3F510570F0A3
S11308701CCFA6CF5F3FECF3983EDCF386957795CB
S11308806795B795F795E7959F5FC1F7FE2B880F9E
S1130890911D9695879597F90895990F0008550F1E
S11308A0AA0BE0E8FEEF16161706E807F907C0F0F2
S11308B012161306E407F50798F0621B730B840BFA
S11308C0950B39F40A2661F0232B242B252B21F4D4
S11308D008950A2609F4A140A6958FEF811D811D74
S10908E00895F894FFCF17
S9030000FC
