S0170000436F6E74726F6C5F41726475696E6F2E73726563FB
S1130000EEC00000EBC100000AC1000008C10000FE
S113001006C1000004C1000002C1000000C10000CC
S1130020FEC00000FCC00000FAC00000F8C00000E0
S1130030F6C00000F4C00000F2C00000F0C00000F0
S1130040EEC00000ECC00000EAC00000E8C0000000
S1130050E6C00000E4C00000E2C00000E0C0000010
S1130060DEC00000DCC00000DAC00000D8C0000020
S1130070D6C00000D4C00000D2C00000D0C0000030
S1130080CEC00000CCC00000CAC00000C8C0000040
S1130090C6C00000C4C00000C2C00000C0C0000050
S11300A0BEC00000BCC00000BAC00000B8C0000060
S11300B0B6C00000B4C00000B2C00000B0C0000070
S11300C0AEC00000ACC00000AAC00000A8C0000080
S11300D0A6C00000A4C00000A2C00000A0C0000090
S11300E09EC0000000407A10F35A00A0724E180916
S11300F00010A5D4E80000E87648170000E40B548B
S1130100020000CA9A3B000000E1F5050000809659
S11301109800000040420F000000A086010000008B
S1130120102700000000E803000000006400000045
S113013000000A00000000000100000000002C760E
S1130140D888DC674F0823DFC1DFAE59E1B1B79629
S1130150E5E3E453C63AE651997696E8E6C2842686
S1130160EB898C9B62ED407C6FFCEFBC9C9F40F262
S1130170BAA56FA5F490055A2AF75C936B6CF967DE
S11301806DC11BFCE0E40D47FEF520E6B500D0EDA3
S1130190902E0300943577050080841E080000200B
S11301A04E0A000000C80C333333330F986E1283A9
S11301B01141EF8D2114893BE65516CFFEE6DB187D
S11301C0D1844B381BF77C1D901DA4BBE424203242
S11301D084725E228100C9F124ECA1E53D2711243B
S11301E01FBECFEFD1E2DEBFCDBF00E00CBF12E0F7
S11301F0A0E0B2E0E6E1F3E100E00BBF02C007904B
S11302000D92AA30B107D9F722E0AAE0B2E001C00A
S11302101D92AD31B207E1F703D00C948909F0CEF9
S1130220CF93DF9300D01F92CDB7DEB733D22CD259
S113023048E060E875E280E090E0B2D10BD28093B0
S11302400002843631F0853711F1823609F05BC043
S11302503CC086E090E0909305028093040280EB1A
S113026090E090931C0280931B020F2EF8E0EF2E77
S1130270F2E0FF2EF02D0AE012E027E132E049E13E
S113028052E06BE172E084E092E0FCD39AC086E035
S113029090E0909305028093040280EC90E09093A8
S11302A01C0280931B020F2EF8E0EF2EF2E0FF2ECB
S11302B0F02D0AE012E027E132E049E152E06BE17F
S11302C072E084E092E0DED37CC085E090E090931D
S11302D005028093040280E890E090931C028093CE
S11302E01B020F2EF8E0EF2EF2E0FF2EF02D0AE0B5
S11302F012E027E132E049E152E06BE172E084E090
S113030092E0C0D35EC084E090E0909305028093B5
S113031004028FEF90E090931C0280931B020F2E37
S1130320F8E0EF2EF2E0FF2EF02D0AE012E027E1D4
S113033032E049E152E06BE172E084E092E0A2D362
S113034080910602909107028097D4F3809106026F
S113035090910702809789F40F2EF6E0EF2EF2E0D9
S1130360FF2EF02D02E112E027E132E049E152E0F4
S11303706EE072E080E192E00DD4209110023091A1
S11303801102809102029091030228173907C9F4DF
S113039000910E0210910F02B8017695679580E0E6
S11303A090E09AD400FF05C020E030E040E05FE335
S11303B02FD48E010F5F1F4F21E043E03DD5C801CC
S11303C057D180E3809300022FEF87EA91E6215012
S11303D080409040E1F700C0000030CF1F920F92A0
S11303E00FB60F9211242F933F934F935F936F9304
S11303F07F938F939F93AF93BF93809108029091C3
S113040009020597CCF42091080230910902215089
S1130410310988E090E0AC0102C0559547952A95D2
S1130420E2F78091010290E084239523892B19F04F
S113043081E082B901C012B880910802909109024A
S113044005975CF1809108029091090283972CF53D
S113045020910802309109022550310980E090E092
S1130460A0E0B0E804C0B695A795979587952A951E
S1130470D2F740910A0250910B0260910C027091E4
S11304800D0284239523A623B723892B8A2B8B2B38
S113049019F081E082B901C012B8809108029091EC
S11304A0090283970CF012B8809108029091090216
S11304B00196909309028093080286B1982F917057
S11304C0492F50E060E070E0809116028E3029F0F0
S11304D0892B880F8093160254C08E3009F051C0C6
S11304E080910602909107024F9714F580911202B1
S11304F090911302A0911402B0911502482B592B2C
S11305006A2B7B2B440F551F661F771F40931202E3
S113051050931302609314027093150280910602A3
S1130520909107020196909307028093060229C0D6
S113053080910602909107024F9719F5809112025B
S113054090911302A0911402B0911502880F991F83
S1130550AA1FBB1F880F991FAA1FBB1F80931202DB
S113056090931302A0931402B093150210921602F2
S1130570809106029091070201969093070280935E
S11305800602BF91AF919F918F917F916F915F917F
S11305904F913F912F910F900FBE0F901F90189580
S11305A0CF92DF92EF92FF920F931F938B019C01E6
S11305B00C52114021093109053D104C21403105EF
S11305C008F041C0453008F43EC04930E0F520E26F
S11305D02093C00028E12093C1004550440F40936C
S11305E0C2006B017C0120E8C20E24E8D21E2EE179
S11305F0E21EF11CCC0CDD1CEE1CFF1CCC0CDD1C23
S1130600EE1CFF1CCC0CDD1CEE1CFF1CDC01CB0122
S1130610880F991FAA1FBB1F880F991FAA1FBB1FF2
S11306209C01AD01220F331F441F551F220F331F9E
S1130630441F551FC701B601DDD321503109309342
S1130640C5002093C4001F910F91FF90EF90DF909D
S1130650CF9008958091C0008823E4F78091C6006C
S113066008959091C00095FFFCCF8093C600089533
S1130670CF93DF93EC0102C0F4DF219688818111CE
S1130680FBCFDF91CF91089581E0809369008DBB0A
S11306907894089517B818B88FEF84B915B881B94C
S11306A012B8089520E030E0FC013081FB01808124
S11306B09181822B932BFA01918380830895FA010F
S11306C0208131813327FB0131832083FA01218189
S11306D0FC01208311820895DC01ED91FC91CF018E
S11306E0857D967040E006C080FF02C021E042276D
S11306F0969587950097C1F7CF01837B957030E07D
S113070006C080FF02C021E03227969587950097A6
S1130710C1F7CF018F78937020E006C080FF02C03C
S113072051E02527969587950097C1F7CF018F77DC
S1130730992750E006C080FF02C0A1E05A27969591
S113074087950097C1F7E295F295F07FFE27E07F49
S1130750FE27842F90E0880F991F880F991F880F18
S1130760991FE82BF92B832F90E0880F991F880F8E
S1130770991FE82BF92B822F90E0880F991F8E2B5D
S11307809F2B852BFB01918380830895AF92BF92A9
S1130790CF92DF92EF92FF920F931F93CF93DF9349
S11307A05B01EB0119821882FC01C080D180D694D0
S11307B0C794D694C794D694C794D694C794D98230
S11307C0C882D601A57DB670F601E37BF570A6015B
S11307D04F78537096012F773327EC0188819981E4
S11307E083FB112710F9C12F60E0D62F82FB00276D
S11307F000F910E081FBEE24E0F8F12C81709927D8
S113080006C0A0FF02C061E0C627B695A795109761
S1130810C1F706C0E0FF02C061E00627F695E79540
S11308203097C1F706C040FF02C0E1E0EE265695BE
S1130830479541155105B9F706C020FF02C0F1E004
S11308408F273695279521153105B9F7209759F04B
S11308500115110559F0E114F10459F4009761F000
S113086020E030E00BC020E030E008C020E030E0C1
S113087005C020E030E002C021E030E0209749F0DC
S11308800115110531F4E114F10419F0009709F48C
S11308902260209749F40115110531F0E114F104A7
S11308A019F0009709F42460209749F00115110507
S11308B031F0E114F10419F0009709F4286020974D
S11308C049F00115110531F4E114F10419F400970C
S11308D009F02061209749F40115110531F0E11464
S11308E0F10419F4009709F02062209749F00115EA
S11308F0110531F0E114F10419F4009709F02064B2
S1130900209749F40115110531F4E114F10419F0AB
S1130910009709F02068209749F00115110531F47A
S1130920E114F10419F0009709F03160209749F4BB
S11309300115110531F0E114F10419F0009709F0E3
S11309403260CD2B39F0012B29F0EF2819F0892BD7
S113095009F03460C226D326E501D982C882DF912A
S1130960CF911F910F91FF90EF90DF90CF90BF90A8
S1130970AF900895CF92DF92EF92FF92CF93DF93DF
S1130980EC01DB0120E030E072C0E881F98140E055
S113099050E4022E02C0559547950A94E2F74E237F
S11309A05F23452B89F1CD90DD90ED90FC9013975A
S11309B0C901880F991F40E050E060E070E8082EFC
S11309C004C076956795579547950A94D2F7C42A3B
S11309D0D52AE62AF72A40E050E060E070E404C03B
S11309E075956795579547958A95D2F74095509593
S11309F0609570954C215D216E217F214D935D930F
S1130A006D937C93139731C0CD90DD90ED90FC9065
S1130A101397C901880F991F40E050E060E070E42B
S1130A20082E04C075956795579547950A94D2F793
S1130A304C295D296E297F29C12CD12C760168941B
S1130A40F7F804C0F694E794D794C7948A95D2F73C
S1130A50C094D094E094F0944C215D216E217F21C8
S1130A604D935D936D937C9313972F5F3F4F2F307E
S1130A7031050CF48ACFDF91CF91FF90EF90DF9096
S1130A80CF9008958F929F92AF92BF92CF92DF92B0
S1130A90EF92FF920F931F93CF93DF934C015B016F
S1130AA06A01E901FFDDBE01C60116DEB801CE010F
S1130AB061DFF60111821082F40111821082F501C6
S1130AC0118210821982188281E090E0F7019183EB
S1130AD08083DF91CF911F910F91FF90EF90DF9072
S1130AE0CF90BF90AF909F908F900895CF92DF9258
S1130AF0EF92FF92FC01DB0120E030E042C0CD9098
S1130B00DD90ED90FC901397C901880F991F40E088
S1130B1050E060E070E804C0769567955795479576
S1130B208A95D2F74C215D216E217F21452B462BDE
S1130B30472B91F04EE050E0421B530B81E090E0D4
S1130B4002C0880F991F4A95E2F740815181842B96
S1130B50952B9183808313C04EE050E0421B530BCE
S1130B6081E090E002C0880F991F4A95E2F78095D2
S1130B7090954081518184239523918380832F5FB5
S1130B803F4F2F3031050CF4BACFFF90EF90DF9038
S1130B90CF9008958F929F92AF92BF92CF92DF929F
S1130BA0EF92FF920F931F93CF93DF93D701ED91B1
S1130BB0FC91B097F9F447017901EA015B016C01FA
S1130BC0B801C90193DFBE01C701E0DDAE01B50183
S1130BD0C60175DDF7011182108219821882D801CD
S1130BE01D921D921D921C92139781E090E0F401D6
S1130BF091838083DF91CF911F910F91FF90EF90AC
S1130C00DF90CF90BF90AF909F908F9008955058F1
S1130C10BB27AA270ED0B4C0A5D030F0AAD020F0AC
S1130C2031F49F3F11F41EF49AC00EF4E095E7FBF3
S1130C3090C0E92FB6D080F3BA1762077307840710
S1130C40950718F071F49EF5CEC00EF4E0950B2EC6
S1130C50BA2FA02D0B01B90190010C01CA01A0010A
S1130C601124FF27591B99F0593F50F4503E68F165
S1130C701A16F040A22F232F342F4427585FF3CFA6
S1130C80469537952795A795F0405395C9F77EF477
S1130C901F16BA0B620B730B840BBAF09150A1F0C0
S1130CA0FF0FBB1F661F771F881FC2F70EC0BA0F46
S1130CB0621F731F841F48F4879577956795B795CE
S1130CC0F7959E3F08F0B3CF9395880F08F09927C6
S1130CD0EE0F979587950895E89409C097FB3EF425
S1130CE090958095709561957F4F8F4F9F4F992375
S1130CF0A9F0F92F96E9BB279395F69587957795F3
S1130D006795B795F111F8CFFAF4BB0F11F460FFB2
S1130D101BC06F5F7F4F8F4F9F4F16C0882311F00A
S1130D2096E911C0772321F09EE8872F762F05C01E
S1130D30662371F096E8862F70E060E02AF09A95B9
S1130D40660F771F881FDAF7880F9695879597F9AE
S1130D50089597F99F6780E870E060E008959FEF39
S1130D6080EC089500240A9416161706180609063E
S1130D70089500240A94121613061406050608950D
S1130D80092E0394000C11F4882352F0BB0F40F495
S1130D90BF2B11F460FF04C06F5F7F4F8F4F9F4FD5
S1130DA0089557FD9058440F551F59F05F3F71F057
S1130DB04795880F97FB991F61F09F3F79F08795BE
S1130DC00895121613061406551FF2CF4695F1DF47
S1130DD008C0161617061806991FF1CF86957105D7
S1130DE0610508940895E894BB2766277727CB010B
S1130DF097F90895A1E21A2EAA1BBB1BFD010DC091
S1130E00AA1FBB1FEE1FFF1FA217B307E407F507B6
S1130E1020F0A21BB30BE40BF50B661F771F881F92
S1130E20991F1A9469F760957095809590959B0128
S1130E30AC01BD01CF010895EF920F931F93CF939F
S1130E40DF93E80147FD02C034E001C034E1042E21
S1130E50000C550B57FF03C0519541955109E32EE2
S1130E60022F242FAE0107D0CE01DF91CF911F9125
S1130E700F91EF9008958F929F92AF92BF92CF926D
S1130E80DF92EF92FF920F931F93CF93DF93CDB72F
S1130E90DEB729970FB6F894DEBF0FBECDBF6A0147
S1130EA0122FB02E2BE3201720F0FF24F394F00E22
S1130EB002C02CE3F22E0F2D27E0AE014F5F5F4FEF
S1130EC050D1BC014981842F8970813031F0E1FC1B
S1130ED006C0E0FE06C090E205C09DE203C09BE2AE
S1130EE001C090E05E2D507143FF3CC0911102C0DF
S1130EF083E001C084E0811718F4212F281B01C06E
S1130F0020E051110BC0F601822F30E2882319F042
S1130F1031938150FBCFC20ED11C20E0992329F0DC
S1130F20D6019C93F60131966F01C6010396E2FE49
S1130F300AC03EE4D6013C9341E411964C931197C8
S1130F4012963C9306C03EE6F601308341E64183A7
S1130F503283FC01322F40E2332309F442C041932F
S1130F603150FACF42FF44C0911102C083E001C066
S1130F7084E0811718F4212F281B01C020E05111AF
S1130F800BC0F601822F30E2882319F0319381508F
S1130F90FBCFC20ED11C20E0992329F0D6019C93EB
S1130FA0F60131966F01C6010396E2FE0BC039E4E7
S1130FB0D6013C933EE411963C93119736E4129685
S1130FC03C9307C039E6F60130833EE6318336E6CA
S1130FD03283FC01322F40E2332319F04193315024
S1130FE0FBCFFC01E20FF11D10828EEF9FEFA6C034
S1130FF021E030E0911102C020E030E0161617061F
S11310001CF4FB01319602C0E1E0F0E02E0F3F1F1B
S1131010BB2021F0EB2DF0E0319602C0E0E0F0E0DF
S11310202E0F3F1FE12FF0E02E173F071CF4121B79
S1131030212F01C020E08E2D887159F4F601822FF2
S113104030E2882319F031938150FBCFC20ED11CBA
S113105020E0992329F0D6019C93F60131966F0183
S113106051110BC0F601822F90E3882319F091935C
S11310708150FBCFC20ED11C20E00F2D060F9A81A8
S1131080342F307144FF03C0913309F4015010161A
S113109024F4093018F008E001C001E0AB0177FF47
S11310A002C040E050E0FB01E41BF50BA1E0B0E01E
S11310B0AC0FBD1FEA0FFB1F8EE2A82E4B01801A56
S11310C091080B2D10E01195019511094F3FBFEFC9
S11310D05B0721F4D601AC9211966D016417750774
S11310E02CF08416950614F4818101C080E34150EC
S11310F051093196D60111967D014017510724F00C
S1131100D6018C936701E2CF6417750739F49633DF
S113111020F4953319F4311101C081E3F601808381
S1131120F701822F90E2882319F091938150FBCF2D
S1131130F701E20FF11D108280E090E029960FB6CE
S1131140F894DEBF0FBECDBFDF91CF911F910F91F9
S1131150FF90EF90DF90CF90BF90AF909F908F90D3
S11311600895283008F027E03327DA01990F311D5C
S113117087FD916000966105710539F432602E5F38
S11311803D9330E32A95E1F708959F3F30F080388E
S11311907105610509F03C5F3C5F3D93913008F0B7
S11311A08068911DDF93CF931F930F93FF92EF926B
S11311B0192F987F9695E92F96959695E90FFF2715
S11311C0E25CFE4F99273327EE24FF24A701E701B1
S11311D005900894079428F4360FE71EF81E491F5B
S11311E0511D660F771F881F991F0694A1F705905C
S11311F0079428F4E70EF81E491F561FC11D770FE8
S1131200881F991F661F0694A1F70590079428F478
S1131210F80E491F561FC71FD11D880F991F661F3F
S1131220771F0694A1F70590079420F4490F561FE1
S1131230C71FD81F990F661F771F881F0694A9F729
S113124084911095177041F0D695C7955795479599
S1131250F794E7941A95C1F7E4EEF0E068941590DA
S1131260159135916591959105907FE27395E118FB
S1131270F10A430B560BC90BD009C0F7E10CF11E60
S1131280431F561FC91FD01D7EF4703311F48A9575
S1131290E6CFE894015030F0080F0AF40027021753
S11312A008F4202F2395022F7A3328F079E37D93D5
S11312B02A95E9F710C07D932A9589F606949795A7
S11312C06795379517951794E118F10A430B560B58
S11312D0C90BD00998F023957E9173957A3308F061
S11312E070E37C932013B8F77E9170617D9330F0A6
S11312F0839571E37D9370E32A95E1F71124EF90D0
S1131300FF900F911F91CF91DF91992787FD9095C1
S10913100895F894FFCFDC
S10D1316640E0100040001006400ED
S9030201F9
