S014000041726475696E6F204354524C2E73726563E9
S1130000EEC0000099C1000009C1000007C1000052
S113001005C1000003C1000001C10000FFC00000D1
S1130020FDC00000FBC00000F9C00000F7C00000E4
S1130030F5C00000F3C00000F1C00000EFC00000F4
S1130040EDC00000EBC00000E9C00000E7C0000004
S1130050E5C00000E3C00000E1C00000DFC0000014
S1130060DDC00000DBC00000D9C00000D7C0000024
S1130070D5C00000D3C00000D1C00000CFC0000034
S1130080CDC00000CBC00000C9C00000C7C0000044
S1130090C5C00000C3C00000C1C00000BFC0000054
S11300A0BDC00000BBC00000B9C00000B7C0000064
S11300B0B5C00000B3C00000B1C00000AFC0000074
S11300C0ADC00000ABC00000A9C00000A7C0000084
S11300D0A5C00000A3C00000A1C000009FC0000094
S11300E09DC0000000407A10F35A00A0724E180917
S11300F00010A5D4E80000E87648170000E40B548B
S1130100020000CA9A3B000000E1F5050000809659
S11301109800000040420F000000A086010000008B
S1130120102700000000E803000000006400000045
S113013000000A00000000000100000000002C760E
S1130140D888DC674F0823DFC1DFAE59E1B1B79629
S1130150E5E3E453C63AE651997696E8E6C2842686
S1130160EB898C9B62ED407C6FFCEFBC9C9F40F262
S1130170BAA56FA5F490055A2AF75C936B6CF967DE
S11301806DC11BFCE0E40D47FEF520E6B500D0EDA3
S1130190902E0300943577050080841E080000200B
S11301A04E0A000000C80C333333330F986E1283A9
S11301B01141EF8D2114893BE65516CFFEE6DB187D
S11301C0D1844B381BF77C1D901DA4BBE424203242
S11301D084725E228100C9F124ECA1E53D2711243B
S11301E01FBECFEFD1E2DEBFCDBF00E00CBF12E0F7
S11301F0A0E0B2E0E6EFFEE000E00BBF02C0079033
S11302000D92AA30B107D9F722E0AAE0B2E001C00A
S11302101D92A931B207E1F746D06BC6F1CEEF9239
S1130220FF920F931F938537E1F48FE090E0909352
S11302300702809306020F2EF3E0EF2EF2E0FF2E6A
S1130240F02D0CE012E025E132E047E152E066E0F7
S113025072E088E092E0ACD290930B0280930A02A1
S11302601DC08436D9F480EF90E090930702809308
S113027006020F2EF3E0EF2EF2E0FF2EF02D0CE03D
S113028012E025E132E047E152E066E072E088E006
S113029092E08ED290930B0280930A021F910F91E9
S11302A0FF90EF900895CF93DF9300D01F92CDB7C6
S11302B0DEB748E060E875E280E090E031D1AAD191
S11302C0A3D12FE78AE196E0215080409040E1F7E6
S11302D000C00000809106028F77E82EF12CB70150
S11302E07695679580E090E0E7D2E0FE05C020E0D7
S11302F030E040E05FE37CD228B1222349F08E0154
S11303000F5F1F4F21E045E087D3C80171D110C0B2
S113031061D180930002853711F0853519F485E7A2
S11303207EDF06C0843611F0843411F484E677DF6E
S113033080E380930002C5CF1F920F920FB60F92F5
S113034011242F933F934F935F936F937F938F93D6
S11303509F93AF93BF9380910A0290910B020097F1
S113036009F465C080910302909104020597CCF4CE
S113037020910302309104022150310988E090E079
S1130380AC0102C0559547952A95E2F78091050284
S113039090E084239523892B19F081E082B901C070
S11303A012B8809103029091040205975CF1809148
S11303B003029091040283972CF52091030230915B
S11303C004022550310980E090E0A0E0B0E804C0C8
S11303D0B695A795979587952A95D2F740910C02E3
S11303E050910D0260910E0270910F0284239523A7
S11303F0A623B723892B8A2B8B2B19F081E082B992
S113040001C012B8809103029091040283972CF0EA
S113041012B810920B0210920A028091030290917A
S11304200402019690930402809303026AC0892B0C
S113043009F067C087E893E10197F1F700C0000075
S113044086B1982F9170492F50E060E070E0809160
S113045014028E3029F0892B880F8093140251C026
S113046080910102909102024F9714F5809110023D
S113047090911102A0911202B0911302482B592BB2
S11304806A2B7B2B440F551F661F771F4093100266
S1130490509311026093120270931302809101022F
S11304A0909102020196909302028093010229C066
S11304B080910102909102024F9719F580911002E8
S11304C090911102A0911202B0911302880F991F0A
S11304D0AA1FBB1F880F991FAA1FBB1F809310025E
S11304E090931102A0931202B0931302109214027B
S11304F080910102909102020196909302028093EE
S11305000102BF91AF919F918F917F916F915F9104
S11305104F913F912F910F900FBE0F901F90189500
S1130520CF92DF92EF92FF920F931F938B019C0166
S11305300C52114021093109053D104C214031056F
S113054008F041C0453008F43EC04930E0F520E2EF
S11305502093C00028E12093C1004550440F4093EC
S1130560C2006B017C0120E8C20E24E8D21E2EE1F9
S1130570E21EF11CCC0CDD1CEE1CFF1CCC0CDD1CA3
S1130580EE1CFF1CCC0CDD1CEE1CFF1CDC01CB01A3
S1130590880F991FAA1FBB1F880F991FAA1FBB1F73
S11305A09C01AD01220F331F441F551F220F331F1F
S11305B0441F551FC701B6010DD221503109309394
S11305C0C5002093C4001F910F91FF90EF90DF901E
S11305D0CF9008958091C0008823E4F78091C600ED
S11305E008959091C00095FFFCCF8093C6000895B4
S11305F0CF93DF93EC0102C0F4DF2196888181114F
S1130600FBCFDF91CF91089581E0809369008DBB8A
S1130610789408958FEF81B912B884B985B917B861
S113062018B8089520E030E0FC013081FB0180819E
S11306309181822B932BFA01918380830895DC01AD
S1130640ED91FC91CF01857D967040E006C080FF5E
S113065002C021E04227969587950097C1F7CF0104
S1130660837B957030E006C080FF02C021E0322712
S1130670969587950097C1F7CF018F78937020E006
S113068006C080FF02C051E0252796958795009704
S1130690C1F7CF018F77992750E006C080FF02C0D1
S11306A0A1E05A27969587950097C1F7E295F295B0
S11306B0F07FFE27E07FFE27842F90E0880F991FAC
S11306C0880F991F880F991FE82BF92B832F90E02F
S11306D0880F991F880F991FE82BF92B822F90E020
S11306E0880F991F8E2B9F2B852BFB019183808371
S11306F00895CF92DF92EF92FF92CF93DF93EC01B4
S1130700DB0120E030E049C0E881F98140E050E4B9
S1130710022E02C0559547950A94E2F74E235F23B3
S1130720452BE9F0CD90DD90ED90FC901397C90135
S1130730880F991F40E050E060E070E804C07695AF
S11307406795579547958A95D2F74C295D296E2967
S11307507F294D935D936D937C9313971CC0CD902B
S1130760DD90ED90FC901397C901880F991F40E02C
S113077050E060E070E404C075956795579547951F
S11307808A95D2F74C295D296E297F294D935D9373
S11307906D937C9313972F5F3F4F2F3031050CF4EB
S11307A0B3CFDF91CF91FF90EF90DF90CF9008957A
S11307B0CF92DF92EF92FF920F931F93CF93DF9329
S11307C06A01E9012FDFBE01C60139DFB801CE019C
S11307D090DF81E090E0F70191838083DF91CF91F6
S11307E01F910F91FF90EF90DF90CF900895505894
S11307F0BB27AA270ED0B4C0A5D030F0AAD020F0D1
S113080031F49F3F11F41EF49AC00EF4E095E7FB17
S113081090C0E92FB6D080F3BA1762077307840734
S1130820950718F071F49EF5CEC00EF4E0950B2EEA
S1130830BA2FA02D0B01B90190010C01CA01A0012E
S11308401124FF27591B99F0593F50F4503E68F189
S11308501A16F040A22F232F342F4427585FF3CFCA
S1130860469537952795A795F0405395C9F77EF49B
S11308701F16BA0B620B730B840BBAF09150A1F0E4
S1130880FF0FBB1F661F771F881FC2F70EC0BA0F6A
S1130890621F731F841F48F4879577956795B795F2
S11308A0F7959E3F08F0B3CF9395880F08F09927EA
S11308B0EE0F979587950895E89409C097FB3EF449
S11308C090958095709561957F4F8F4F9F4F992399
S11308D0A9F0F92F96E9BB279395F6958795779517
S11308E06795B795F111F8CFFAF4BB0F11F460FFD7
S11308F01BC06F5F7F4F8F4F9F4F16C0882311F02F
S113090096E911C0772321F09EE8872F762F05C042
S1130910662371F096E8862F70E060E02AF09A95DD
S1130920660F771F881FDAF7880F9695879597F9D2
S1130930089597F99F6780E870E060E008959FEF5D
S113094080EC089500240A94161617061806090662
S1130950089500240A941216130614060506089531
S1130960092E0394000C11F4882352F0BB0F40F4B9
S1130970BF2B11F460FF04C06F5F7F4F8F4F9F4FF9
S1130980089557FD9058440F551F59F05F3F71F07B
S11309904795880F97FB991F61F09F3F79F08795E2
S11309A00895121613061406551FF2CF4695F1DF6B
S11309B008C0161617061806991FF1CF86957105FB
S11309C0610508940895E894BB2766277727CB012F
S11309D097F90895A1E21A2EAA1BBB1BFD010DC0B5
S11309E0AA1FBB1FEE1FFF1FA217B307E407F507DB
S11309F020F0A21BB30BE40BF50B661F771F881FB7
S1130A00991F1A9469F760957095809590959B014C
S1130A10AC01BD01CF010895EF920F931F93CF93C3
S1130A20DF93E80147FD02C034E001C034E1042E45
S1130A30000C550B57FF03C0519541955109E32E06
S1130A40022F242FAE0107D0CE01DF91CF911F9149
S1130A500F91EF9008958F929F92AF92BF92CF9291
S1130A60DF92EF92FF920F931F93CF93DF93CDB753
S1130A70DEB729970FB6F894DEBF0FBECDBF6A016B
S1130A80122FB02E2BE3201720F0FF24F394F00E46
S1130A9002C02CE3F22E0F2D27E0AE014F5F5F4F13
S1130AA050D1BC014981842F8970813031F0E1FC3F
S1130AB006C0E0FE06C090E205C09DE203C09BE2D2
S1130AC001C090E05E2D507143FF3CC0911102C003
S1130AD083E001C084E0811718F4212F281B01C092
S1130AE020E051110BC0F601822F30E2882319F067
S1130AF031938150FBCFC20ED11C20E0992329F001
S1130B00D6019C93F60131966F01C6010396E2FE6D
S1130B100AC03EE4D6013C9341E411964C931197EC
S1130B2012963C9306C03EE6F601308341E64183CB
S1130B303283FC01322F40E2332309F442C0419353
S1130B403150FACF42FF44C0911102C083E001C08A
S1130B5084E0811718F4212F281B01C020E05111D3
S1130B600BC0F601822F30E2882319F031938150B3
S1130B70FBCFC20ED11C20E0992329F0D6019C930F
S1130B80F60131966F01C6010396E2FE0BC039E40B
S1130B90D6013C933EE411963C93119736E41296A9
S1130BA03C9307C039E6F60130833EE6318336E6EE
S1130BB03283FC01322F40E2332319F04193315048
S1130BC0FBCFFC01E20FF11D10828EEF9FEFA6C058
S1130BD021E030E0911102C020E030E01616170643
S1130BE01CF4FB01319602C0E1E0F0E02E0F3F1F40
S1130BF0BB2021F0EB2DF0E0319602C0E0E0F0E004
S1130C002E0F3F1FE12FF0E02E173F071CF4121B9D
S1130C10212F01C020E08E2D887159F4F601822F16
S1130C2030E2882319F031938150FBCFC20ED11CDE
S1130C3020E0992329F0D6019C93F60131966F01A7
S1130C4051110BC0F601822F90E3882319F0919380
S1130C508150FBCFC20ED11C20E00F2D060F9A81CC
S1130C60342F307144FF03C0913309F4015010163E
S1130C7024F4093018F008E001C001E0AB0177FF6B
S1130C8002C040E050E0FB01E41BF50BA1E0B0E042
S1130C90AC0FBD1FEA0FFB1F8EE2A82E4B01801A7A
S1130CA091080B2D10E01195019511094F3FBFEFED
S1130CB05B0721F4D601AC9211966D016417750798
S1130CC02CF08416950614F4818101C080E3415010
S1130CD051093196D60111967D014017510724F030
S1130CE0D6018C936701E2CF6417750739F4963304
S1130CF020F4953319F4311101C081E3F6018083A6
S1130D00F701822F90E2882319F091938150FBCF51
S1130D10F701E20FF11D108280E090E029960FB6F2
S1130D20F894DEBF0FBECDBFDF91CF911F910F911D
S1130D30FF90EF90DF90CF90BF90AF909F908F90F7
S1130D400895283008F027E03327DA01990F311D80
S1130D5087FD916000966105710539F432602E5F5C
S1130D603D9330E32A95E1F708959F3F30F08038B2
S1130D707105610509F03C5F3C5F3D93913008F0DB
S1130D808068911DDF93CF931F930F93FF92EF928F
S1130D90192F987F9695E92F96959695E90FFF2739
S1130DA0E25CFE4F99273327EE24FF24A701E701D5
S1130DB005900894079428F4360FE71EF81E491F7F
S1130DC0511D660F771F881F991F0694A1F7059080
S1130DD0079428F4E70EF81E491F561FC11D770F0C
S1130DE0881F991F661F0694A1F70590079428F49D
S1130DF0F80E491F561FC71FD11D880F991F661F64
S1130E00771F0694A1F70590079420F4490F561F05
S1130E10C71FD81F990F661F771F881F0694A9F74D
S1130E2084911095177041F0D695C79557954795BD
S1130E30F794E7941A95C1F7E4EEF0E068941590FE
S1130E40159135916591959105907FE27395E1181F
S1130E50F10A430B560BC90BD009C0F7E10CF11E84
S1130E60431F561FC91FD01D7EF4703311F48A9599
S1130E70E6CFE894015030F0080F0AF40027021777
S1130E8008F4202F2395022F7A3328F079E37D93F9
S1130E902A95E9F710C07D932A9589F606949795CB
S1130EA06795379517951794E118F10A430B560B7C
S1130EB0C90BD00998F023957E9173957A3308F085
S1130EC070E37C932013B8F77E9170617D9330F0CA
S1130ED0839571E37D9370E32A95E1F71124EF90F4
S1130EE0FF900F911F91CF91DF91992787FD9095E6
S1090EF00895F894FFCF01
S10D0EF630010064000EAA0005009C
S9030205F5
