S014000041726475696E6F204354524C2E73726563E9
S113000071C00000B8C000008CC000008AC00000AD
S113001088C0000086C0000084C0000082C00000C8
S113002080C000007EC000007CC000007AC00000D8
S113003078C0000076C0000074C0000072C00000E8
S113004070C000006EC000006CC000006AC00000F8
S113005068C0000066C0000064C0000062C0000008
S113006060C000005EC000005CC000005AC0000018
S113007058C0000056C0000054C0000052C0000028
S113008050C000004EC000004CC000004AC0000038
S113009048C0000046C0000044C0000042C0000048
S11300A040C000003EC000003CC000003AC0000058
S11300B038C0000036C0000034C0000032C0000068
S11300C030C000002EC000002CC000002AC0000078
S11300D028C0000026C0000024C0000022C0000088
S11300E020C0000011241FBECFEFD1E2DEBFCDBF80
S11300F000E00CBF12E0A0E0B2E0E8EAF4E000E0C7
S11301000BBF02C007900D92A630B107D9F722E0C9
S1130110A6E0B2E001C01D92A131B207E1F70CD014
S1130120C1C16ECF853719F48CEC1DC10895843696
S113013011F483E318C1089512D148E060E875E230
S113014080E090E01FD185D17ED176D180930002EA
S1130150803319F08FEF07D1F8CF853711F085354B
S113016019F485E7DFDFF1CF843611F0843469F7C1
S113017084E6D8DFEACF1F920F920FB60F921124B4
S11301802F933F934F935F936F937F938F939F939B
S1130190AF93BF938091060290910702009709F4F0
S11301A065C080910302909104020597CCF42091DC
S11301B00302309104022150310988E090E0AC013F
S11301C002C0559547952A95E2F78091050290E083
S11301D084239523892B19F081E082B901C012B8D8
S11301E0809103029091040205975CF180910302CF
S11301F09091040283972CF520910302309104021C
S11302002550310980E090E0A0E0B0E804C0B69544
S1130210A795979587952A95D2F740910802509112
S1130220090260910A0270910B0284239523A6238C
S1130230B723892B8A2B8B2B19F081E082B901C05B
S113024012B8809103029091040283972CF012B8A3
S11302501092070210920602809103029091040208
S1130260019690930402809303026AC0892B09F0DB
S113027067C087E893E10197F1F700C0000086B1F9
S1130280982F9170492F50E060E070E08091100247
S11302908E3029F0892B880F8093100251C08091F1
S11302A00102909102024F9714F580910C029091F3
S11302B00D02A0910E02B0910F02482B592B6A2B0C
S11302C07B2B440F551F661F771F40930C025093DE
S11302D00D0260930E0270930F02809101029091BF
S11302E002020196909302028093010229C0809138
S11302F00102909102024F9719F580910C0290919E
S11303000D02A0910E02B0910F02880F991FAA1F2F
S1130310BB1F880F991FAA1FBB1F80930C029093C9
S11303200D02A0930E02B0930F021092100280915E
S113033001029091020201969093020280930102BD
S1130340BF91AF919F918F917F916F915F914F91E9
S11303503F912F910F900FBE0F901F9018958FEF24
S113036084B915B80895883060F421E030E0A9011B
S113037002C0440F551F8A95E2F7CA0193B1892739
S113038085B90895CF92DF92EF92FF920F931F9356
S11303908B019C010C52114021093109053D104C7F
S11303A02140310508F041C0453008F43EC04930D1
S11303B0E0F520E22093C00028E12093C1004550DD
S11303C0440F4093C2006B017C0120E8C20E24E874
S11303D0D21E2EE1E21EF11CCC0CDD1CEE1CFF1C17
S11303E0CC0CDD1CEE1CFF1CCC0CDD1CEE1CFF1C1D
S11303F0DC01CB01880F991FAA1FBB1F880F991F0F
S1130400AA1FBB1F9C01AD01220F331F441F551FA0
S1130410220F331F441F551FC701B60121D021509D
S113042031093093C5002093C4001F910F91FF90B0
S1130430EF90DF90CF9008958091C0008823E4F777
S11304408091C600089581E0809369008DBB789403
S113045008958FEF81B912B884B917B818B8089500
S1130460A1E21A2EAA1BBB1BFD010DC0AA1FBB1FB4
S1130470EE1FFF1FA217B307E407F50720F0A21B26
S1130480B30BE40BF50B661F771F881F991F1A9493
S113049069F760957095809590959B01AC01BD01BD
S10B04A0CF010895F894FFCF89
S10904A830010064000EA7
S9030205F5
