:1000000071C0000086C0000084C0000082C00000F3
:1000100080C000007EC000007CC000007AC00000EC
:1000200078C0000076C0000074C0000072C00000FC
:1000300070C000006EC000006CC000006AC000000C
:1000400068C0000066C0000064C0000062C000001C
:1000500060C000005EC000005CC000005AC000002C
:1000600058C0000056C0000054C0000052C000003C
:1000700050C000004EC000004CC000004AC000004C
:1000800048C0000046C0000044C0000042C000005C
:1000900040C000003EC000003CC000003AC000006C
:1000A00038C0000036C0000034C0000032C000007C
:1000B00030C000002EC000002CC000002AC000008C
:1000C00028C0000026C0000024C0000022C000009C
:1000D00020C000001EC000001CC000001AC00000AC
:1000E00018C0000011241FBECFEFD1E2DEBFCDBF8C
:1000F00000E00CBF12E0A0E0B2E0E0E1F3E000E0DD
:100100000BBF02C007900D92A830B107D9F70CD0F1
:10011000FDC076CF853719F480EE41C0089584364E
:1001200011F487E03CC0089536D048E060E875E2FD
:1001300080E090E055D081E043D082E032D083E08F
:100140003FD084E02ED0A6D0C82F2FEF87EA91E6CB
:10015000215080409040E1F700C00000C53711F009
:10016000C53519F485E7D6DF06C0C43611F0C434AE
:1001700011F484E6CFDFC83339F482E092E0909343
:1001800001028093000294D085E092E090930102F6
:1001900080930002D8CF8FEF84B915B8089585B940
:1001A0000895883060F421E030E0A90102C0440FD6
:1001B000551F8A95E2F7CA0193B1892B85B9089535
:1001C000883068F445B121E030E0B90102C0660F23
:1001D000771F8A95E2F7CB018095842385B908952E
:1001E000CF92DF92EF92FF920F931F938B019C01AE
:1001F0000C52114021093109053D104C21403105B7
:1002000008F041C0453008F43EC04930E0F520E236
:100210002093C00028E12093C1004550440F409333
:10022000C2006B017C0120E8C20E24E8D21E2EE140
:10023000E21EF11CCC0CDD1CEE1CFF1CCC0CDD1CEA
:10024000EE1CFF1CCC0CDD1CEE1CFF1CDC01CB01EA
:10025000880F991FAA1FBB1F880F991FAA1FBB1FBA
:100260009C01AD01220F331F441F551F220F331F66
:10027000441F551FC701B60127D0215031093093C3
:10028000C5002093C4001F910F91FF90EF90DF9065
:10029000CF9008958091C0008823E4F78091C60034
:1002A00008959091C00095FFFCCF8093C6000895FB
:1002B000CF93DF93EC0102C0F4DF21968881811196
:1002C000FBCFDF91CF910895A1E21A2EAA1BBB1B91
:1002D000FD010DC0AA1FBB1FEE1FFF1FA217B30712
:1002E000E407F50720F0A21BB30BE40BF50B661F28
:1002F000771F881F991F1A9469F7609570958095EC
:1003000090959B01AC01BD01CF010895F894FFCFFA
:08031000050238330030300013
:00000001FF
