S015000041726475696E6F204B6C696D612E737265632F
S113000071C0000050C100008CC000008AC0000014
S113001088C0000086C0000084C0000082C00000C8
S113002080C000007EC000007CC000007AC00000D8
S113003078C0000076C0000074C0000072C00000E8
S113004070C000006EC000006CC000006AC00000F8
S113005068C0000066C0000064C0000062C0000008
S113006060C000005EC000005CC000005AC0000018
S113007058C0000056C0000054C0000052C0000028
S113008050C000004EC000004CC000004AC0000038
S113009048C0000046C0000044C0000042C0000048
S11300A040C000003EC000003CC000003AC0000058
S11300B038C0000036C0000034C0000032C0000068
S11300C030C000002EC000002CC000002AC0000078
S11300D028C0000026C0000024C0000022C0000088
S11300E020C0000011241FBECFEFD1E2DEBFCDBF80
S11300F000E00CBF12E0A0E0B2E0E8E1F7E000E0CD
S11301000BBF02C007900D92A630B107D9F722E0C9
S1130110A6E0B2E001C01D92AB31B207E1F764D0B2
S1130120F9C26ECF80910A0290910B02A0910C0249
S1130130B0910D02892B8A2B8B2BF9F0EBE0F1E0C7
S11301408081816080838FE891E00197F1F700C09E
S1130150000080910A0290910B02A0910C02B091D0
S11301600D020197A109B10980930A0290930B0231
S1130170A0930C02B0930D020895EBE0F1E08081AE
S11301808E7F808308958091060290910702A0914A
S11301900802B0910902892B8A2B8B2BF9F0EBE032
S11301A0F1E08081846080838FE891E00197F1F72A
S11301B000C000008091060290910702A0910802FD
S11301C0B09109020197A109B109809306029093A5
S11301D00702A0930802B09309020895EBE0F1E04E
S11301E080818B7F808308958FEF80930A01E0D014
S11301F0D9D08091040290910502809789F40F2E42
S1130200F4E0EF2EF2E0FF2EF02D06E112E020E103
S113021032E04EE052E062E172E084E192E025D205
S113022020911402309115028091000290910102F4
S113023028173907A9F58091120290911302803B87
S11302409105A9F0803C910519F5A0910202B091A5
S1130250030220EA36E841E050E03DD260930A020E
S113026070930B0280930C0290930D0211C0A09125
S11302700202B091030220EA36E841E050E02BD2BA
S11302806093060270930702809308029093090218
S1130290109215021092140210921302109212027C
S11302A041DF71DFA6CF1F920F920FB60F92112478
S11302B04F935F936F937F938F939F93AF93BF936A
S11302C08AE68A95F1F700C086B1982F9170492F7C
S11302D050E060E070E080911A028E3029F0892BA2
S11302E0880F80931A0251C08091040290910502F4
S11302F04F9714F58091160290911702A09118025D
S1130300B0911902482B592B6A2B7B2B440F551F94
S1130310661F771F409316025093170260931802CA
S113032070931902809104029091050201969093B2
S113033005028093040229C0809104029091050271
S11303404F9719F58091160290911702A091180207
S1130350B0911902880F991FAA1FBB1F880F991FFC
S1130360AA1FBB1F8093160290931702A093180232
S1130370B093190210921A0280910402909105021E
S113038001969093050280930402BF91AF919F91CF
S11303908F917F916F915F914F910F900FBE0F904E
S11303A01F90189581E0809369008DBB789408951F
S11303B08FEF81B912B884B915B817B818B8089571
S11303C0AF92BF92CF92DF92EF92FF920F931F935F
S11303D0CF93DF935B01EB0119821882FC01C0808B
S11303E0D180D694C794D694C794D694C794D694FF
S11303F0C794D982C882D601A57DB670F601E37B85
S1130400F570A6014F78537096012F773327EC01CE
S11304108881998183FB112710F9C12F60E0D62FC1
S113042082FB002700F910E081FBEE24E0F8F12CB8
S11304308170992706C0A0FF02C061E0C627B69567
S1130440A7951097C1F706C0E0FF02C061E0062738
S1130450F695E7953097C1F706C040FF02C0E1E08A
S1130460EE265695479541155105B9F706C020FF6C
S113047002C0F1E08F273695279521153105B9F78C
S1130480209759F00115110559F0E114F10459F4BC
S1130490009761F020E030E00BC020E030E008C0BD
S11304A020E030E005C020E030E002C021E030E090
S11304B0209749F00115110531F4E114F10419F004
S11304C0009709F42260209749F40115110531F0D1
S11304D0E114F10419F0009709F42460209749F01D
S11304E00115110531F0E114F10419F0009709F434
S11304F02860209749F00115110531F4E114F10445
S113050019F4009709F02061209749F401151105A9
S113051031F0E114F10419F4009709F020622097F6
S113052049F00115110531F0E114F10419F40097B3
S113053009F02064209749F40115110531F4E11400
S1130540F10419F0009709F02068209749F001158B
S1130550110531F4E114F10419F0009709F0316048
S1130560209749F40115110531F0E114F10419F053
S1130570009709F03260CD2B39F0012B29F0EF28D8
S113058019F0892B09F03460C226D326E501D982FB
S1130590C882DF91CF911F910F91FF90EF90DF9070
S11305A0CF90BF90AF900895CF92DF92EF92FF92D9
S11305B0FC01DB0120E030E042C0CD90DD90ED9005
S11305C0FC901397C901880F991F40E050E060E048
S11305D070E804C076956795579547958A95D2F744
S11305E04C215D216E217F21452B462B472B91F019
S11305F04EE050E0421B530B81E090E002C0880FB4
S1130600991F4A95E2F740815181842B952B918360
S1130610808313C04EE050E0421B530B81E090E016
S113062002C0880F991F4A95E2F780959095408102
S1130630518184239523918380832F5F3F4F2F30F3
S113064031050CF4BACFFF90EF90DF90CF9008956E
S1130650FA01208131813327FB0131832083FA01A0
S11306602181FC012083118208958F929F92AF9281
S1130670BF92CF92DF92EF92FF920F931F93CF938B
S1130680DF935C014B01EA016901B801C9018CDF08
S1130690BE01C60195DEAE01B401C501D9DFF60184
S11306A01182108219821882F8011082118212823A
S11306B0138281E090E0F70191838083DF91CF91F1
S11306C01F910F91FF90EF90DF90CF90BF90AF906C
S11306D09F908F900895B7FF04C003D0821B930BA3
S11306E0089509D0A59F900DB49F900DA49F800DEF
S11306F0911D11240895A29FB001B39FC001A39F2F
S1130700700D811D1124911DB29F700D811D112446
S10B0710911D0895F894FFCF38
S1090718060001000100CF
S9030000FC
