:1000000071C00000F7C000008CC000008AC0000072
:1000100088C0000086C0000084C0000082C00000CC
:1000200080C000007EC000007CC000007AC00000DC
:1000300078C0000076C0000074C0000072C00000EC
:1000400070C000006EC000006CC000006AC00000FC
:1000500068C0000066C0000064C0000062C000000C
:1000600060C000005EC000005CC000005AC000001C
:1000700058C0000056C0000054C0000052C000002C
:1000800050C000004EC000004CC000004AC000003C
:1000900048C0000046C0000044C0000042C000004C
:1000A00040C000003EC000003CC000003AC000005C
:1000B00038C0000036C0000034C0000032C000006C
:1000C00030C000002EC000002CC000002AC000007C
:1000D00028C0000026C0000024C0000022C000008C
:1000E00020C0000011241FBECFEFD1E2DEBFCDBF84
:1000F00000E00CBF12E0A0E0B2E0E8E3F6E000E0D0
:100100000BBF02C007900D92A230B107D9F722E0D1
:10011000A2E0B2E001C01D92AF30B207E1F718D003
:1001200089C26ECF1816190624F485B1816085B98D
:10013000089585B18E7F85B908951816190624F49F
:1001400085B1846085B9089585B18B7F85B908959F
:100150008FEF80930A01DBD0D4D010920E02109260
:100160000A0210920B0210920C0210920D021092D1
:1001700009021092080210920702109206021092D1
:100180000502109204021092030210920202C12C86
:10019000D12CC0E0D0E008C0C0E0D4E205C00F2EF2
:1001A000C12CF4E2DF2EF02D80910002909101022B
:1001B000809789F40F2EF0E0EF2EF2E0FF2EF02D65
:1001C0000AE012E024E032E042E052E066E072E051
:1001D00088E092E0F9D180910602909107028F3079
:1001E0009105E9F2803F9105B9F2C601A6DFCE0183
:1001F00099DFDACF1F920F920FB60F9211242F932F
:100200004F935F936F937F938F939F93AF93BF931E
:100210002FEF89EF90E0215080409040E1F700C03F
:10022000000086B1982F9170492F50E060E070E097
:1002300080910E028E3029F0892B880F80930E0258
:1002400052C080910002909101024F9714F5809165
:100250000A0290910B02A0910C02B0910D02482B62
:10026000592B6A2B7B2B440F551F661F771F40931A
:100270000A0250930B0260930C0270930D0280915E
:100280000002909101020196909301028093000276
:100290002AC080910002909101024F9721F5809130
:1002A0000A0290910B02A0910C02B0910D02880FEE
:1002B000991FAA1FBB1F880F991FAA1FBB1F8093DE
:1002C0000A0290930B02A0930C02B0930D021092BD
:1002D0000E0285B9809100029091010201969093DF
:1002E000010280930002BF91AF919F918F917F9106
:1002F0006F915F914F912F910F900FBE0F901F90B4
:10030000189581E0809369008DBB789408958FEFF4
:1003100081B912B884B915B817B818B80895AF9252
:10032000BF92CF92DF92EF92FF920F931F93CF93E2
:10033000DF935B01EB0119821882FC01C080D18040
:10034000D694C794D694C794D694C794D694C79499
:10035000D982C882D601A57DB670F601E37BF5701F
:10036000A6014F78537096012F773327EC018881CF
:10037000998183FB112710F9C12F60E0D62F82FBF2
:10038000002700F910E081FBEE24E0F8F12C8170E9
:10039000992706C0A0FF02C061E0C627B695A795C1
:1003A0001097C1F706C0E0FF02C061E00627F6958E
:1003B000E7953097C1F706C040FF02C0E1E0EE26A6
:1003C0005695479541155105B9F706C020FF02C063
:1003D000F1E08F273695279521153105B9F720973C
:1003E00059F00115110559F0E114F10459F4009781
:1003F00061F020E030E00BC020E030E008C020E0F9
:1004000030E005C020E030E002C021E030E020977D
:1004100049F00115110531F4E114F10419F00097C8
:1004200009F42260209749F40115110531F0E11417
:10043000F10419F0009709F42460209749F00115A0
:10044000110531F0E114F10419F0009709F4286066
:10045000209749F00115110531F4E114F10419F464
:10046000009709F02061209749F40115110531F03A
:10047000E114F10419F4009709F02062209749F083
:100480000115110531F0E114F10419F4009709F098
:100490002064209749F40115110531F4E114F104A9
:1004A00019F0009709F02068209749F0011511050F
:1004B00031F4E114F10419F0009709F0316020974C
:1004C00049F40115110531F0E114F10419F0009718
:1004D00009F03260CD2B39F0012B29F0EF2819F00B
:1004E000892B09F03460C226D326E501D982C8825F
:1004F000DF91CF911F910F91FF90EF90DF90CF9000
:10050000BF90AF900895CF92DF92EF92FF92FC01DF
:10051000DB0120E030E042C0CD90DD90ED90FC901A
:100520001397C901880F991F40E050E060E070E820
:1005300004C076956795579547958A95D2F74C21D3
:100540005D216E217F21452B462B472B91F04EE0FC
:1005500050E0421B530B81E090E002C0880F991FCE
:100560004A95E2F740815181842B952B91838083BA
:1005700013C04EE050E0421B530B81E090E002C0FC
:10058000880F991F4A95E2F7809590954081518197
:1005900084239523918380832F5F3F4F2F30310534
:1005A0000CF4BACFFF90EF90DF90CF900895FA014E
:1005B000208131813327FB0131832083FA0121819E
:1005C000FC012083118208958F929F92AF92BF9277
:1005D000CF92DF92EF92FF920F931F93CF93DF930F
:1005E0005C014B01EA016901B801C9018CDFBE0160
:1005F000C60195DEAE01B401C501D9DFF601118255
:10060000108219821882F8011082118212821382DC
:1006100081E090E0F70191838083DF91CF911F917A
:100620000F91FF90EF90DF90CF90BF90AF909F9091
:080630008F900895F894FFCFAC
:020638000100BF
:00000001FF
