S014000054656D7046726F6D50536F432E7372656391
S113000071C00000B1C000008CC000008AC00000B4
S113001088C0000086C0000084C0000082C00000C8
S113002080C000007EC000007CC000007AC00000D8
S113003078C0000076C0000074C0000072C00000E8
S113004070C000006EC000006CC000006AC00000F8
S113005068C0000066C0000064C0000062C0000008
S113006060C000005FC000005CC0000073C00000FE
S113007058C0000056C0000054C0000052C0000028
S113008050C000004EC000004CC000004AC0000038
S113009048C0000046C0000044C0000042C0000048
S11300A040C000003EC000003CC000003AC0000058
S11300B038C0000036C0000034C0000032C0000068
S11300C030C000002EC000002CC000002AC0000078
S11300D028C0000026C0000024C0000022C0000088
S11300E020C0000011241FBECFEFD1E2DEBFCDBF80
S11300F000E00CBF12E0A0E0B2E0EAE3FAE000E0C6
S11301000BBF02C007900D92AC30B107D9F722E0C3
S1130110ACE0B2E001C01D92A232B207E1F706D111
S11301208AC46ECF1F920F920FB60F9211248F9331
S11301309F938091C60090E08F7799279093210236
S11301408093200285B99F918F910F900FBE0F90DD
S11301501F9018951F920F920FB60F9211240F90B3
S11301600FBE0F901F9018951F920F920FB60F920B
S113017011242F933F934F935F936F937F938F93A8
S11301809F93AF93BF938091090290910A020597C0
S1130190CCF42091090230910A022150310988E0FF
S11301A090E0AC0102C0559547952A95E2F78091FD
S11301B0020290E084239523892B19F081E082B90F
S11301C001C012B88091090290910A0205975CF16E
S11301D08091090290910A0283972CF520910902DB
S11301E030910A022550310980E090E0A0E0B0E8A7
S11301F004C0B695A795979587952A95D2F740910F
S11302000C0250910D0260910E0270910F02842332
S11302109523A623B723892B8A2B8B2B19F081E0F6
S113022082B901C012B88091090290910A028397A1
S11302300CF012B88091090290910A0201969093F1
S11302400A028093090286B1982F9170492F50E0D9
S113025060E070E0809118028E3029F0892B880FBD
S11302608093180254C08E3009F051C08091070267
S1130270909108024F9714F5809114029091150201
S1130280A0911602B0911702482B592B6A2B7B2B95
S1130290440F551F661F771F409314025093150295
S11302A060931602709317028091070290910802DE
S11302B00196909308028093070229C08091070257
S11302C0909108024F9719F58091140290911502AC
S11302D0A0911602B0911702880F991FAA1FBB1F85
S11302E0880F991FAA1FBB1F8093140290931502B5
S11302F0A0931602B093170210921802809107027D
S11303009091080201969093080280930702BF918E
S1130310AF919F918F917F916F915F914F913F9199
S11303202F910F900FBE0F901F9018951DB88FEF4F
S113033084B921E048E060E875E280E090E049D0CB
S11303407894AAD0AFD08091070290910802809748
S113035089F40F2EF7E0EF2EF2E0FF2EF02D04E1EA
S113036012E029E132E04BE152E060E172E082E127
S113037092E002D38091100285B92091120230914B
S11303801302809105029091060228173907E1F4BF
S1130390209110023091110280910002909101028B
S11303A02817390789F40F2EF9E0EF2EF2E0FF2E1B
S11303B0F02D0CE012E029E132E04BE152E060E282
S11303C072E083E092E065D2109211021092100262
S11303D0BACFCF92DF92EF92FF920F931F93522FD7
S11303E08B019C010E561109210931090339114C65
S11303F02140310508F049C0453008F446C0493071
S113040008F043C020E22093C00028E12093C100FB
S1130410552329F0E1ECF0E0208120682083455049
S1130420440F4093C2006B017C0120E8C20E24E813
S1130430D21E2EE1E21EF11CCC0CDD1CEE1CFF1CB6
S1130440CC0CDD1CEE1CFF1CCC0CDD1CEE1CFF1CBC
S1130450DC01CB01880F991FAA1FBB1F880F991FAE
S1130460AA1FBB1F9C01AD01220F331F441F551F40
S1130470220F331F441F551FC701B601BAD22150A2
S113048031093093C5002093C4001F910F91FF9050
S1130490EF90DF90CF90089581E0809369008DBB49
S11304A07894089517B818B88FEF84B915B881B93E
S11304B0089520E030E0FC013081FB0180819181CE
S11304C0822B932BFA01918380830895FA01208172
S11304D031813327FB0131832083FA012181FC011F
S11304E0208311820895DC01ED91FC91CF01857D7B
S11304F0967040E006C080FF02C021E04227969536
S113050087950097C1F7CF01837B957030E006C0D3
S113051080FF02C021E03227969587950097C1F7A6
S1130520CF018F78937020E006C080FF02C051E0B5
S11305302527969587950097C1F7CF018F7799273F
S113054050E006C080FF02C0A1E05A279695879527
S11305500097C1F7E295F295F07FFE27E07FFE2732
S1130560842F90E0880F991F880F991F880F991F77
S1130570E82BF92B832F90E0880F991F880F991F80
S1130580E82BF92B822F90E0880F991F8E2B9F2B3D
S1130590852BFB01918380830895AF92BF92CF9204
S11305A0DF92EF92FF920F931F93CF93DF935B0140
S11305B0EB0119821882FC01C080D180D694C794C3
S11305C0D694C794D694C794D694C794D982C88233
S11305D0D601A57DB670F601E37BF570A6014F78D0
S11305E0537096012F773327EC018881998183FB1F
S11305F0112710F9C12F60E0D62F82FB002700F9E4
S113060010E081FBEE24E0F8F12C8170992706C0FC
S1130610A0FF02C061E0C627B695A7951097C1F761
S113062006C0E0FF02C061E00627F695E795309723
S1130630C1F706C040FF02C0E1E0EE26569547959B
S113064041155105B9F706C020FF02C0F1E08F271C
S11306503695279521153105B9F7209759F00115DD
S1130660110559F0E114F10459F4009761F020E008
S113067030E00BC020E030E008C020E030E005C0EE
S113068020E030E002C021E030E0209749F001157D
S1130690110531F4E114F10419F0009709F4226012
S11306A0209749F40115110531F0E114F10419F012
S11306B0009709F42460209749F00115110531F0E1
S11306C0E114F10419F0009709F42860209749F027
S11306D00115110531F4E114F10419F4009709F03E
S11306E02061209749F40115110531F0E114F1045A
S11306F019F4009709F02062209749F001151105BB
S113070031F0E114F10419F4009709F02064209702
S113071049F40115110531F4E114F10419F00097BD
S113072009F02068209749F00115110531F4E1140E
S1130730F10419F0009709F03160209749F401158C
S1130740110531F0E114F10419F0009709F0326059
S1130750CD2B39F0012B29F0EF2819F0892B09F062
S11307603460C226D326E501D982C882DF91CF91B5
S11307701F910F91FF90EF90DF90CF90BF90AF90BB
S11307800895CF92DF92EF92FF92CF93DF93EC0123
S1130790DB0120E030E072C0E881F98140E050E400
S11307A0022E02C0559547950A94E2F74E235F2323
S11307B0452B89F1CD90DD90ED90FC901397C90104
S11307C0880F991F40E050E060E070E8082E04C0F4
S11307D076956795579547950A94D2F7C42AD52AF2
S11307E0E62AF72A40E050E060E070E404C0759522
S11307F06795579547958A95D2F74095509560959A
S113080070954C215D216E217F214D935D936D93F5
S11308107C93139731C0CD90DD90ED90FC901397AD
S1130820C901880F991F40E050E060E070E4082E91
S113083004C075956795579547950A94D2F74C2946
S11308405D296E297F29C12CD12C76016894F7F893
S113085004C0F694E794D794C7948A95D2F7C094C9
S1130860D094E094F0944C215D216E217F214D932E
S11308705D936D937C9313972F5F3F4F2F3031051A
S11308800CF48ACFDF91CF91FF90EF90DF90CF905F
S11308900895CF92DF92EF92FF920F931F93CF931D
S11308A0DF936A01E90105DEBE01C6011CDEB80161
S11308B0CE0167DF81E090E0F70191838083DF91CF
S11308C0CF911F910F91FF90EF90DF90CF900895FB
S11308D0CF92DF92EF92FF92FC01DB0120E030E047
S11308E042C0CD90DD90ED90FC901397C901880F24
S11308F0991F40E050E060E070E804C07695679589
S1130900579547958A95D2F74C215D216E217F2119
S1130910452B462B472B91F04EE050E0421B530BE6
S113092081E090E002C0880F991F4A95E2F7408168
S11309305181842B952B9183808313C04EE050E02A
S1130940421B530B81E090E002C0880F991F4A9527
S1130950E2F780959095408151818423952391837A
S113096080832F5F3F4F2F3031050CF4BACFFF90B7
S1130970EF90DF90CF9008958F929F92AF92BF92A5
S1130980CF92DF92EF92FF920F931F93CF93DF9357
S1130990D701ED91FC91B097F9F447017901EA018F
S11309A05B016C01B801C90193DFBE01C701F5DD2C
S11309B0AE01B501C6018ADDF701118210821982E8
S11309C01882D8011D921D921D921C92139781E0EA
S11309D090E0F40191838083DF91CF911F910F9177
S11309E0FF90EF90DF90CF90BF90AF909F908F904B
S11309F00895A1E21A2EAA1BBB1BFD010DC0AA1F5C
S1130A00BB1FEE1FFF1FA217B307E407F50720F073
S1130A10A21BB30BE40BF50B661F771F881F991FEE
S1130A201A9469F760957095809590959B01AC0137
S10D0A30BD01CF010895F894FFCF33
S10F0A3AFF000E01000400010064000035
S9030202F8
